{
	"contracts/Calculator1.sol": {
		"Calculator": {
			"abi": [
				{
					"inputs": [],
					"name": "Add",
					"outputs": [
						{
							"internalType": "uint256",
							"name": "",
							"type": "uint256"
						}
					],
					"stateMutability": "view",
					"type": "function"
				},
				{
					"inputs": [],
					"name": "DIv",
					"outputs": [
						{
							"internalType": "uint256",
							"name": "",
							"type": "uint256"
						}
					],
					"stateMutability": "view",
					"type": "function"
				},
				{
					"inputs": [],
					"name": "Multi",
					"outputs": [
						{
							"internalType": "uint256",
							"name": "",
							"type": "uint256"
						}
					],
					"stateMutability": "view",
					"type": "function"
				},
				{
					"inputs": [
						{
							"internalType": "uint256",
							"name": "x",
							"type": "uint256"
						}
					],
					"name": "Number1",
					"outputs": [],
					"stateMutability": "nonpayable",
					"type": "function"
				},
				{
					"inputs": [
						{
							"internalType": "uint256",
							"name": "x",
							"type": "uint256"
						}
					],
					"name": "Number2",
					"outputs": [],
					"stateMutability": "nonpayable",
					"type": "function"
				},
				{
					"inputs": [],
					"name": "Sub",
					"outputs": [
						{
							"internalType": "uint256",
							"name": "",
							"type": "uint256"
						}
					],
					"stateMutability": "view",
					"type": "function"
				}
			],
			"devdoc": {
				"kind": "dev",
				"methods": {},
				"version": 1
			},
			"evm": {
				"assembly": "    /* \"contracts/Calculator1.sol\":61:684  contract Calculator{... */\n  mstore(0x40, 0x80)\n  callvalue\n  dup1\n  iszero\n  tag_1\n  jumpi\n  0x00\n  dup1\n  revert\ntag_1:\n  pop\n  dataSize(sub_0)\n  dup1\n  dataOffset(sub_0)\n  0x00\n  codecopy\n  0x00\n  return\nstop\n\nsub_0: assembly {\n        /* \"contracts/Calculator1.sol\":61:684  contract Calculator{... */\n      mstore(0x40, 0x80)\n      callvalue\n      dup1\n      iszero\n      tag_1\n      jumpi\n      0x00\n      dup1\n      revert\n    tag_1:\n      pop\n      jumpi(tag_2, lt(calldatasize, 0x04))\n      shr(0xe0, calldataload(0x00))\n      dup1\n      0x1f5ebc40\n      eq\n      tag_3\n      jumpi\n      dup1\n      0x67e06858\n      eq\n      tag_4\n      jumpi\n      dup1\n      0x9465b558\n      eq\n      tag_5\n      jumpi\n      dup1\n      0x9a5b05ad\n      eq\n      tag_6\n      jumpi\n      dup1\n      0xb87f3280\n      eq\n      tag_7\n      jumpi\n      dup1\n      0xf899d5bf\n      eq\n      tag_8\n      jumpi\n    tag_2:\n      0x00\n      dup1\n      revert\n        /* \"contracts/Calculator1.sol\":187:245  function Number2(uint x) public{... */\n    tag_3:\n      tag_9\n      0x04\n      dup1\n      calldatasize\n      sub\n      dup2\n      add\n      swap1\n      tag_10\n      swap2\n      swap1\n      tag_11\n      jump\t// in\n    tag_10:\n      tag_12\n      jump\t// in\n    tag_9:\n      stop\n        /* \"contracts/Calculator1.sol\":253:353  function Add() view public returns(uint){... */\n    tag_4:\n      tag_13\n      tag_14\n      jump\t// in\n    tag_13:\n      mload(0x40)\n      tag_15\n      swap2\n      swap1\n      tag_16\n      jump\t// in\n    tag_15:\n      mload(0x40)\n      dup1\n      swap2\n      sub\n      swap1\n      return\n        /* \"contracts/Calculator1.sol\":579:679  function DIv() view public returns(uint){... */\n    tag_5:\n      tag_17\n      tag_18\n      jump\t// in\n    tag_17:\n      mload(0x40)\n      tag_19\n      swap2\n      swap1\n      tag_16\n      jump\t// in\n    tag_19:\n      mload(0x40)\n      dup1\n      swap2\n      sub\n      swap1\n      return\n        /* \"contracts/Calculator1.sol\":469:571  function Multi() view public returns(uint){... */\n    tag_6:\n      tag_20\n      tag_21\n      jump\t// in\n    tag_20:\n      mload(0x40)\n      tag_22\n      swap2\n      swap1\n      tag_16\n      jump\t// in\n    tag_22:\n      mload(0x40)\n      dup1\n      swap2\n      sub\n      swap1\n      return\n        /* \"contracts/Calculator1.sol\":361:461  function Sub() view public returns(uint){... */\n    tag_7:\n      tag_23\n      tag_24\n      jump\t// in\n    tag_23:\n      mload(0x40)\n      tag_25\n      swap2\n      swap1\n      tag_16\n      jump\t// in\n    tag_25:\n      mload(0x40)\n      dup1\n      swap2\n      sub\n      swap1\n      return\n        /* \"contracts/Calculator1.sol\":121:179  function Number1(uint x) public{... */\n    tag_8:\n      tag_26\n      0x04\n      dup1\n      calldatasize\n      sub\n      dup2\n      add\n      swap1\n      tag_27\n      swap2\n      swap1\n      tag_11\n      jump\t// in\n    tag_27:\n      tag_28\n      jump\t// in\n    tag_26:\n      stop\n        /* \"contracts/Calculator1.sol\":187:245  function Number2(uint x) public{... */\n    tag_12:\n        /* \"contracts/Calculator1.sol\":236:237  x */\n      dup1\n        /* \"contracts/Calculator1.sol\":229:233  num2 */\n      0x01\n        /* \"contracts/Calculator1.sol\":229:237  num2 = x */\n      dup2\n      swap1\n      sstore\n      pop\n        /* \"contracts/Calculator1.sol\":187:245  function Number2(uint x) public{... */\n      pop\n      jump\t// out\n        /* \"contracts/Calculator1.sol\":253:353  function Add() view public returns(uint){... */\n    tag_14:\n        /* \"contracts/Calculator1.sol\":288:292  uint */\n      0x00\n        /* \"contracts/Calculator1.sol\":304:312  uint sum */\n      dup1\n        /* \"contracts/Calculator1.sol\":320:324  num2 */\n      sload(0x01)\n        /* \"contracts/Calculator1.sol\":315:319  num1 */\n      sload(0x00)\n        /* \"contracts/Calculator1.sol\":315:324  num1+num2 */\n      tag_31\n      swap2\n      swap1\n      tag_32\n      jump\t// in\n    tag_31:\n        /* \"contracts/Calculator1.sol\":304:324  uint sum = num1+num2 */\n      swap1\n      pop\n        /* \"contracts/Calculator1.sol\":342:345  sum */\n      dup1\n        /* \"contracts/Calculator1.sol\":335:345  return sum */\n      swap2\n      pop\n      pop\n        /* \"contracts/Calculator1.sol\":253:353  function Add() view public returns(uint){... */\n      swap1\n      jump\t// out\n        /* \"contracts/Calculator1.sol\":579:679  function DIv() view public returns(uint){... */\n    tag_18:\n        /* \"contracts/Calculator1.sol\":614:618  uint */\n      0x00\n        /* \"contracts/Calculator1.sol\":630:638  uint div */\n      dup1\n        /* \"contracts/Calculator1.sol\":646:650  num2 */\n      sload(0x01)\n        /* \"contracts/Calculator1.sol\":641:645  num1 */\n      sload(0x00)\n        /* \"contracts/Calculator1.sol\":641:650  num1/num2 */\n      tag_34\n      swap2\n      swap1\n      tag_35\n      jump\t// in\n    tag_34:\n        /* \"contracts/Calculator1.sol\":630:650  uint div = num1/num2 */\n      swap1\n      pop\n        /* \"contracts/Calculator1.sol\":668:671  div */\n      dup1\n        /* \"contracts/Calculator1.sol\":661:671  return div */\n      swap2\n      pop\n      pop\n        /* \"contracts/Calculator1.sol\":579:679  function DIv() view public returns(uint){... */\n      swap1\n      jump\t// out\n        /* \"contracts/Calculator1.sol\":469:571  function Multi() view public returns(uint){... */\n    tag_21:\n        /* \"contracts/Calculator1.sol\":506:510  uint */\n      0x00\n        /* \"contracts/Calculator1.sol\":522:530  uint mul */\n      dup1\n        /* \"contracts/Calculator1.sol\":538:542  num2 */\n      sload(0x01)\n        /* \"contracts/Calculator1.sol\":533:537  num1 */\n      sload(0x00)\n        /* \"contracts/Calculator1.sol\":533:542  num1*num2 */\n      tag_37\n      swap2\n      swap1\n      tag_38\n      jump\t// in\n    tag_37:\n        /* \"contracts/Calculator1.sol\":522:542  uint mul = num1*num2 */\n      swap1\n      pop\n        /* \"contracts/Calculator1.sol\":560:563  mul */\n      dup1\n        /* \"contracts/Calculator1.sol\":553:563  return mul */\n      swap2\n      pop\n      pop\n        /* \"contracts/Calculator1.sol\":469:571  function Multi() view public returns(uint){... */\n      swap1\n      jump\t// out\n        /* \"contracts/Calculator1.sol\":361:461  function Sub() view public returns(uint){... */\n    tag_24:\n        /* \"contracts/Calculator1.sol\":396:400  uint */\n      0x00\n        /* \"contracts/Calculator1.sol\":412:420  uint sub */\n      dup1\n        /* \"contracts/Calculator1.sol\":428:432  num2 */\n      sload(0x01)\n        /* \"contracts/Calculator1.sol\":423:427  num1 */\n      sload(0x00)\n        /* \"contracts/Calculator1.sol\":423:432  num1-num2 */\n      tag_40\n      swap2\n      swap1\n      tag_41\n      jump\t// in\n    tag_40:\n        /* \"contracts/Calculator1.sol\":412:432  uint sub = num1-num2 */\n      swap1\n      pop\n        /* \"contracts/Calculator1.sol\":450:453  sub */\n      dup1\n        /* \"contracts/Calculator1.sol\":443:453  return sub */\n      swap2\n      pop\n      pop\n        /* \"contracts/Calculator1.sol\":361:461  function Sub() view public returns(uint){... */\n      swap1\n      jump\t// out\n        /* \"contracts/Calculator1.sol\":121:179  function Number1(uint x) public{... */\n    tag_28:\n        /* \"contracts/Calculator1.sol\":170:171  x */\n      dup1\n        /* \"contracts/Calculator1.sol\":163:167  num1 */\n      0x00\n        /* \"contracts/Calculator1.sol\":163:171  num1 = x */\n      dup2\n      swap1\n      sstore\n      pop\n        /* \"contracts/Calculator1.sol\":121:179  function Number1(uint x) public{... */\n      pop\n      jump\t// out\n        /* \"#utility.yul\":88:205   */\n    tag_44:\n        /* \"#utility.yul\":197:198   */\n      0x00\n        /* \"#utility.yul\":194:195   */\n      dup1\n        /* \"#utility.yul\":187:199   */\n      revert\n        /* \"#utility.yul\":334:411   */\n    tag_46:\n        /* \"#utility.yul\":371:378   */\n      0x00\n        /* \"#utility.yul\":400:405   */\n      dup2\n        /* \"#utility.yul\":389:405   */\n      swap1\n      pop\n        /* \"#utility.yul\":334:411   */\n      swap2\n      swap1\n      pop\n      jump\t// out\n        /* \"#utility.yul\":417:539   */\n    tag_47:\n        /* \"#utility.yul\":490:514   */\n      tag_58\n        /* \"#utility.yul\":508:513   */\n      dup2\n        /* \"#utility.yul\":490:514   */\n      tag_46\n      jump\t// in\n    tag_58:\n        /* \"#utility.yul\":483:488   */\n      dup2\n        /* \"#utility.yul\":480:515   */\n      eq\n        /* \"#utility.yul\":470:533   */\n      tag_59\n      jumpi\n        /* \"#utility.yul\":529:530   */\n      0x00\n        /* \"#utility.yul\":526:527   */\n      dup1\n        /* \"#utility.yul\":519:531   */\n      revert\n        /* \"#utility.yul\":470:533   */\n    tag_59:\n        /* \"#utility.yul\":417:539   */\n      pop\n      jump\t// out\n        /* \"#utility.yul\":545:684   */\n    tag_48:\n        /* \"#utility.yul\":591:596   */\n      0x00\n        /* \"#utility.yul\":629:635   */\n      dup2\n        /* \"#utility.yul\":616:636   */\n      calldataload\n        /* \"#utility.yul\":607:636   */\n      swap1\n      pop\n        /* \"#utility.yul\":645:678   */\n      tag_61\n        /* \"#utility.yul\":672:677   */\n      dup2\n        /* \"#utility.yul\":645:678   */\n      tag_47\n      jump\t// in\n    tag_61:\n        /* \"#utility.yul\":545:684   */\n      swap3\n      swap2\n      pop\n      pop\n      jump\t// out\n        /* \"#utility.yul\":690:1019   */\n    tag_11:\n        /* \"#utility.yul\":749:755   */\n      0x00\n        /* \"#utility.yul\":798:800   */\n      0x20\n        /* \"#utility.yul\":786:795   */\n      dup3\n        /* \"#utility.yul\":777:784   */\n      dup5\n        /* \"#utility.yul\":773:796   */\n      sub\n        /* \"#utility.yul\":769:801   */\n      slt\n        /* \"#utility.yul\":766:885   */\n      iszero\n      tag_63\n      jumpi\n        /* \"#utility.yul\":804:883   */\n      tag_64\n      tag_44\n      jump\t// in\n    tag_64:\n        /* \"#utility.yul\":766:885   */\n    tag_63:\n        /* \"#utility.yul\":924:925   */\n      0x00\n        /* \"#utility.yul\":949:1002   */\n      tag_65\n        /* \"#utility.yul\":994:1001   */\n      dup5\n        /* \"#utility.yul\":985:991   */\n      dup3\n        /* \"#utility.yul\":974:983   */\n      dup6\n        /* \"#utility.yul\":970:992   */\n      add\n        /* \"#utility.yul\":949:1002   */\n      tag_48\n      jump\t// in\n    tag_65:\n        /* \"#utility.yul\":939:1002   */\n      swap2\n      pop\n        /* \"#utility.yul\":895:1012   */\n      pop\n        /* \"#utility.yul\":690:1019   */\n      swap3\n      swap2\n      pop\n      pop\n      jump\t// out\n        /* \"#utility.yul\":1025:1143   */\n    tag_49:\n        /* \"#utility.yul\":1112:1136   */\n      tag_67\n        /* \"#utility.yul\":1130:1135   */\n      dup2\n        /* \"#utility.yul\":1112:1136   */\n      tag_46\n      jump\t// in\n    tag_67:\n        /* \"#utility.yul\":1107:1110   */\n      dup3\n        /* \"#utility.yul\":1100:1137   */\n      mstore\n        /* \"#utility.yul\":1025:1143   */\n      pop\n      pop\n      jump\t// out\n        /* \"#utility.yul\":1149:1371   */\n    tag_16:\n        /* \"#utility.yul\":1242:1246   */\n      0x00\n        /* \"#utility.yul\":1280:1282   */\n      0x20\n        /* \"#utility.yul\":1269:1278   */\n      dup3\n        /* \"#utility.yul\":1265:1283   */\n      add\n        /* \"#utility.yul\":1257:1283   */\n      swap1\n      pop\n        /* \"#utility.yul\":1293:1364   */\n      tag_69\n        /* \"#utility.yul\":1361:1362   */\n      0x00\n        /* \"#utility.yul\":1350:1359   */\n      dup4\n        /* \"#utility.yul\":1346:1363   */\n      add\n        /* \"#utility.yul\":1337:1343   */\n      dup5\n        /* \"#utility.yul\":1293:1364   */\n      tag_49\n      jump\t// in\n    tag_69:\n        /* \"#utility.yul\":1149:1371   */\n      swap3\n      swap2\n      pop\n      pop\n      jump\t// out\n        /* \"#utility.yul\":1377:1557   */\n    tag_50:\n        /* \"#utility.yul\":1425:1502   */\n      0x4e487b7100000000000000000000000000000000000000000000000000000000\n        /* \"#utility.yul\":1422:1423   */\n      0x00\n        /* \"#utility.yul\":1415:1503   */\n      mstore\n        /* \"#utility.yul\":1522:1526   */\n      0x11\n        /* \"#utility.yul\":1519:1520   */\n      0x04\n        /* \"#utility.yul\":1512:1527   */\n      mstore\n        /* \"#utility.yul\":1546:1550   */\n      0x24\n        /* \"#utility.yul\":1543:1544   */\n      0x00\n        /* \"#utility.yul\":1536:1551   */\n      revert\n        /* \"#utility.yul\":1563:1754   */\n    tag_32:\n        /* \"#utility.yul\":1603:1606   */\n      0x00\n        /* \"#utility.yul\":1622:1642   */\n      tag_72\n        /* \"#utility.yul\":1640:1641   */\n      dup3\n        /* \"#utility.yul\":1622:1642   */\n      tag_46\n      jump\t// in\n    tag_72:\n        /* \"#utility.yul\":1617:1642   */\n      swap2\n      pop\n        /* \"#utility.yul\":1656:1676   */\n      tag_73\n        /* \"#utility.yul\":1674:1675   */\n      dup4\n        /* \"#utility.yul\":1656:1676   */\n      tag_46\n      jump\t// in\n    tag_73:\n        /* \"#utility.yul\":1651:1676   */\n      swap3\n      pop\n        /* \"#utility.yul\":1699:1700   */\n      dup3\n        /* \"#utility.yul\":1696:1697   */\n      dup3\n        /* \"#utility.yul\":1692:1701   */\n      add\n        /* \"#utility.yul\":1685:1701   */\n      swap1\n      pop\n        /* \"#utility.yul\":1720:1723   */\n      dup1\n        /* \"#utility.yul\":1717:1718   */\n      dup3\n        /* \"#utility.yul\":1714:1724   */\n      gt\n        /* \"#utility.yul\":1711:1747   */\n      iszero\n      tag_74\n      jumpi\n        /* \"#utility.yul\":1727:1745   */\n      tag_75\n      tag_50\n      jump\t// in\n    tag_75:\n        /* \"#utility.yul\":1711:1747   */\n    tag_74:\n        /* \"#utility.yul\":1563:1754   */\n      swap3\n      swap2\n      pop\n      pop\n      jump\t// out\n        /* \"#utility.yul\":1760:1940   */\n    tag_51:\n        /* \"#utility.yul\":1808:1885   */\n      0x4e487b7100000000000000000000000000000000000000000000000000000000\n        /* \"#utility.yul\":1805:1806   */\n      0x00\n        /* \"#utility.yul\":1798:1886   */\n      mstore\n        /* \"#utility.yul\":1905:1909   */\n      0x12\n        /* \"#utility.yul\":1902:1903   */\n      0x04\n        /* \"#utility.yul\":1895:1910   */\n      mstore\n        /* \"#utility.yul\":1929:1933   */\n      0x24\n        /* \"#utility.yul\":1926:1927   */\n      0x00\n        /* \"#utility.yul\":1919:1934   */\n      revert\n        /* \"#utility.yul\":1946:2131   */\n    tag_35:\n        /* \"#utility.yul\":1986:1987   */\n      0x00\n        /* \"#utility.yul\":2003:2023   */\n      tag_78\n        /* \"#utility.yul\":2021:2022   */\n      dup3\n        /* \"#utility.yul\":2003:2023   */\n      tag_46\n      jump\t// in\n    tag_78:\n        /* \"#utility.yul\":1998:2023   */\n      swap2\n      pop\n        /* \"#utility.yul\":2037:2057   */\n      tag_79\n        /* \"#utility.yul\":2055:2056   */\n      dup4\n        /* \"#utility.yul\":2037:2057   */\n      tag_46\n      jump\t// in\n    tag_79:\n        /* \"#utility.yul\":2032:2057   */\n      swap3\n      pop\n        /* \"#utility.yul\":2076:2077   */\n      dup3\n        /* \"#utility.yul\":2066:2101   */\n      tag_80\n      jumpi\n        /* \"#utility.yul\":2081:2099   */\n      tag_81\n      tag_51\n      jump\t// in\n    tag_81:\n        /* \"#utility.yul\":2066:2101   */\n    tag_80:\n        /* \"#utility.yul\":2123:2124   */\n      dup3\n        /* \"#utility.yul\":2120:2121   */\n      dup3\n        /* \"#utility.yul\":2116:2125   */\n      div\n        /* \"#utility.yul\":2111:2125   */\n      swap1\n      pop\n        /* \"#utility.yul\":1946:2131   */\n      swap3\n      swap2\n      pop\n      pop\n      jump\t// out\n        /* \"#utility.yul\":2137:2547   */\n    tag_38:\n        /* \"#utility.yul\":2177:2184   */\n      0x00\n        /* \"#utility.yul\":2200:2220   */\n      tag_83\n        /* \"#utility.yul\":2218:2219   */\n      dup3\n        /* \"#utility.yul\":2200:2220   */\n      tag_46\n      jump\t// in\n    tag_83:\n        /* \"#utility.yul\":2195:2220   */\n      swap2\n      pop\n        /* \"#utility.yul\":2234:2254   */\n      tag_84\n        /* \"#utility.yul\":2252:2253   */\n      dup4\n        /* \"#utility.yul\":2234:2254   */\n      tag_46\n      jump\t// in\n    tag_84:\n        /* \"#utility.yul\":2229:2254   */\n      swap3\n      pop\n        /* \"#utility.yul\":2289:2290   */\n      dup3\n        /* \"#utility.yul\":2286:2287   */\n      dup3\n        /* \"#utility.yul\":2282:2291   */\n      mul\n        /* \"#utility.yul\":2311:2341   */\n      tag_85\n        /* \"#utility.yul\":2329:2340   */\n      dup2\n        /* \"#utility.yul\":2311:2341   */\n      tag_46\n      jump\t// in\n    tag_85:\n        /* \"#utility.yul\":2300:2341   */\n      swap2\n      pop\n        /* \"#utility.yul\":2490:2491   */\n      dup3\n        /* \"#utility.yul\":2481:2488   */\n      dup3\n        /* \"#utility.yul\":2477:2492   */\n      div\n        /* \"#utility.yul\":2474:2475   */\n      dup5\n        /* \"#utility.yul\":2471:2493   */\n      eq\n        /* \"#utility.yul\":2451:2452   */\n      dup4\n        /* \"#utility.yul\":2444:2453   */\n      iszero\n        /* \"#utility.yul\":2424:2507   */\n      or\n        /* \"#utility.yul\":2401:2540   */\n      tag_86\n      jumpi\n        /* \"#utility.yul\":2520:2538   */\n      tag_87\n      tag_50\n      jump\t// in\n    tag_87:\n        /* \"#utility.yul\":2401:2540   */\n    tag_86:\n        /* \"#utility.yul\":2185:2547   */\n      pop\n        /* \"#utility.yul\":2137:2547   */\n      swap3\n      swap2\n      pop\n      pop\n      jump\t// out\n        /* \"#utility.yul\":2553:2747   */\n    tag_41:\n        /* \"#utility.yul\":2593:2597   */\n      0x00\n        /* \"#utility.yul\":2613:2633   */\n      tag_89\n        /* \"#utility.yul\":2631:2632   */\n      dup3\n        /* \"#utility.yul\":2613:2633   */\n      tag_46\n      jump\t// in\n    tag_89:\n        /* \"#utility.yul\":2608:2633   */\n      swap2\n      pop\n        /* \"#utility.yul\":2647:2667   */\n      tag_90\n        /* \"#utility.yul\":2665:2666   */\n      dup4\n        /* \"#utility.yul\":2647:2667   */\n      tag_46\n      jump\t// in\n    tag_90:\n        /* \"#utility.yul\":2642:2667   */\n      swap3\n      pop\n        /* \"#utility.yul\":2691:2692   */\n      dup3\n        /* \"#utility.yul\":2688:2689   */\n      dup3\n        /* \"#utility.yul\":2684:2693   */\n      sub\n        /* \"#utility.yul\":2676:2693   */\n      swap1\n      pop\n        /* \"#utility.yul\":2715:2716   */\n      dup2\n        /* \"#utility.yul\":2709:2713   */\n      dup2\n        /* \"#utility.yul\":2706:2717   */\n      gt\n        /* \"#utility.yul\":2703:2740   */\n      iszero\n      tag_91\n      jumpi\n        /* \"#utility.yul\":2720:2738   */\n      tag_92\n      tag_50\n      jump\t// in\n    tag_92:\n        /* \"#utility.yul\":2703:2740   */\n    tag_91:\n        /* \"#utility.yul\":2553:2747   */\n      swap3\n      swap2\n      pop\n      pop\n      jump\t// out\n\n    auxdata: 0xa26469706673582212208c52f1b2f821e378289b29344c262dda47352f4ac355660f12e3afc58826c13464736f6c63430008180033\n}\n",
				"bytecode": {
					"linkReferences": {},
					"object": "608060405234801561000f575f80fd5b506103808061001d5f395ff3fe608060405234801561000f575f80fd5b5060043610610060575f3560e01c80631f5ebc401461006457806367e06858146100805780639465b5581461009e5780639a5b05ad146100bc578063b87f3280146100da578063f899d5bf146100f8575b5f80fd5b61007e600480360381019061007991906101c6565b610114565b005b61008861011e565b6040516100959190610200565b60405180910390f35b6100a6610138565b6040516100b39190610200565b60405180910390f35b6100c4610152565b6040516100d19190610200565b60405180910390f35b6100e261016c565b6040516100ef9190610200565b60405180910390f35b610112600480360381019061010d91906101c6565b610186565b005b8060018190555050565b5f806001545f5461012f9190610246565b90508091505090565b5f806001545f5461014991906102a6565b90508091505090565b5f806001545f5461016391906102d6565b90508091505090565b5f806001545f5461017d9190610317565b90508091505090565b805f8190555050565b5f80fd5b5f819050919050565b6101a581610193565b81146101af575f80fd5b50565b5f813590506101c08161019c565b92915050565b5f602082840312156101db576101da61018f565b5b5f6101e8848285016101b2565b91505092915050565b6101fa81610193565b82525050565b5f6020820190506102135f8301846101f1565b92915050565b7f4e487b71000000000000000000000000000000000000000000000000000000005f52601160045260245ffd5b5f61025082610193565b915061025b83610193565b925082820190508082111561027357610272610219565b5b92915050565b7f4e487b71000000000000000000000000000000000000000000000000000000005f52601260045260245ffd5b5f6102b082610193565b91506102bb83610193565b9250826102cb576102ca610279565b5b828204905092915050565b5f6102e082610193565b91506102eb83610193565b92508282026102f981610193565b915082820484148315176103105761030f610219565b5b5092915050565b5f61032182610193565b915061032c83610193565b925082820390508181111561034457610343610219565b5b9291505056fea26469706673582212208c52f1b2f821e378289b29344c262dda47352f4ac355660f12e3afc58826c13464736f6c63430008180033",
					"opcodes": "PUSH1 0x80 PUSH1 0x40 MSTORE CALLVALUE DUP1 ISZERO PUSH2 0xF JUMPI PUSH0 DUP1 REVERT JUMPDEST POP PUSH2 0x380 DUP1 PUSH2 0x1D PUSH0 CODECOPY PUSH0 RETURN INVALID PUSH1 0x80 PUSH1 0x40 MSTORE CALLVALUE DUP1 ISZERO PUSH2 0xF JUMPI PUSH0 DUP1 REVERT JUMPDEST POP PUSH1 0x4 CALLDATASIZE LT PUSH2 0x60 JUMPI PUSH0 CALLDATALOAD PUSH1 0xE0 SHR DUP1 PUSH4 0x1F5EBC40 EQ PUSH2 0x64 JUMPI DUP1 PUSH4 0x67E06858 EQ PUSH2 0x80 JUMPI DUP1 PUSH4 0x9465B558 EQ PUSH2 0x9E JUMPI DUP1 PUSH4 0x9A5B05AD EQ PUSH2 0xBC JUMPI DUP1 PUSH4 0xB87F3280 EQ PUSH2 0xDA JUMPI DUP1 PUSH4 0xF899D5BF EQ PUSH2 0xF8 JUMPI JUMPDEST PUSH0 DUP1 REVERT JUMPDEST PUSH2 0x7E PUSH1 0x4 DUP1 CALLDATASIZE SUB DUP2 ADD SWAP1 PUSH2 0x79 SWAP2 SWAP1 PUSH2 0x1C6 JUMP JUMPDEST PUSH2 0x114 JUMP JUMPDEST STOP JUMPDEST PUSH2 0x88 PUSH2 0x11E JUMP JUMPDEST PUSH1 0x40 MLOAD PUSH2 0x95 SWAP2 SWAP1 PUSH2 0x200 JUMP JUMPDEST PUSH1 0x40 MLOAD DUP1 SWAP2 SUB SWAP1 RETURN JUMPDEST PUSH2 0xA6 PUSH2 0x138 JUMP JUMPDEST PUSH1 0x40 MLOAD PUSH2 0xB3 SWAP2 SWAP1 PUSH2 0x200 JUMP JUMPDEST PUSH1 0x40 MLOAD DUP1 SWAP2 SUB SWAP1 RETURN JUMPDEST PUSH2 0xC4 PUSH2 0x152 JUMP JUMPDEST PUSH1 0x40 MLOAD PUSH2 0xD1 SWAP2 SWAP1 PUSH2 0x200 JUMP JUMPDEST PUSH1 0x40 MLOAD DUP1 SWAP2 SUB SWAP1 RETURN JUMPDEST PUSH2 0xE2 PUSH2 0x16C JUMP JUMPDEST PUSH1 0x40 MLOAD PUSH2 0xEF SWAP2 SWAP1 PUSH2 0x200 JUMP JUMPDEST PUSH1 0x40 MLOAD DUP1 SWAP2 SUB SWAP1 RETURN JUMPDEST PUSH2 0x112 PUSH1 0x4 DUP1 CALLDATASIZE SUB DUP2 ADD SWAP1 PUSH2 0x10D SWAP2 SWAP1 PUSH2 0x1C6 JUMP JUMPDEST PUSH2 0x186 JUMP JUMPDEST STOP JUMPDEST DUP1 PUSH1 0x1 DUP2 SWAP1 SSTORE POP POP JUMP JUMPDEST PUSH0 DUP1 PUSH1 0x1 SLOAD PUSH0 SLOAD PUSH2 0x12F SWAP2 SWAP1 PUSH2 0x246 JUMP JUMPDEST SWAP1 POP DUP1 SWAP2 POP POP SWAP1 JUMP JUMPDEST PUSH0 DUP1 PUSH1 0x1 SLOAD PUSH0 SLOAD PUSH2 0x149 SWAP2 SWAP1 PUSH2 0x2A6 JUMP JUMPDEST SWAP1 POP DUP1 SWAP2 POP POP SWAP1 JUMP JUMPDEST PUSH0 DUP1 PUSH1 0x1 SLOAD PUSH0 SLOAD PUSH2 0x163 SWAP2 SWAP1 PUSH2 0x2D6 JUMP JUMPDEST SWAP1 POP DUP1 SWAP2 POP POP SWAP1 JUMP JUMPDEST PUSH0 DUP1 PUSH1 0x1 SLOAD PUSH0 SLOAD PUSH2 0x17D SWAP2 SWAP1 PUSH2 0x317 JUMP JUMPDEST SWAP1 POP DUP1 SWAP2 POP POP SWAP1 JUMP JUMPDEST DUP1 PUSH0 DUP2 SWAP1 SSTORE POP POP JUMP JUMPDEST PUSH0 DUP1 REVERT JUMPDEST PUSH0 DUP2 SWAP1 POP SWAP2 SWAP1 POP JUMP JUMPDEST PUSH2 0x1A5 DUP2 PUSH2 0x193 JUMP JUMPDEST DUP2 EQ PUSH2 0x1AF JUMPI PUSH0 DUP1 REVERT JUMPDEST POP JUMP JUMPDEST PUSH0 DUP2 CALLDATALOAD SWAP1 POP PUSH2 0x1C0 DUP2 PUSH2 0x19C JUMP JUMPDEST SWAP3 SWAP2 POP POP JUMP JUMPDEST PUSH0 PUSH1 0x20 DUP3 DUP5 SUB SLT ISZERO PUSH2 0x1DB JUMPI PUSH2 0x1DA PUSH2 0x18F JUMP JUMPDEST JUMPDEST PUSH0 PUSH2 0x1E8 DUP5 DUP3 DUP6 ADD PUSH2 0x1B2 JUMP JUMPDEST SWAP2 POP POP SWAP3 SWAP2 POP POP JUMP JUMPDEST PUSH2 0x1FA DUP2 PUSH2 0x193 JUMP JUMPDEST DUP3 MSTORE POP POP JUMP JUMPDEST PUSH0 PUSH1 0x20 DUP3 ADD SWAP1 POP PUSH2 0x213 PUSH0 DUP4 ADD DUP5 PUSH2 0x1F1 JUMP JUMPDEST SWAP3 SWAP2 POP POP JUMP JUMPDEST PUSH32 0x4E487B7100000000000000000000000000000000000000000000000000000000 PUSH0 MSTORE PUSH1 0x11 PUSH1 0x4 MSTORE PUSH1 0x24 PUSH0 REVERT JUMPDEST PUSH0 PUSH2 0x250 DUP3 PUSH2 0x193 JUMP JUMPDEST SWAP2 POP PUSH2 0x25B DUP4 PUSH2 0x193 JUMP JUMPDEST SWAP3 POP DUP3 DUP3 ADD SWAP1 POP DUP1 DUP3 GT ISZERO PUSH2 0x273 JUMPI PUSH2 0x272 PUSH2 0x219 JUMP JUMPDEST JUMPDEST SWAP3 SWAP2 POP POP JUMP JUMPDEST PUSH32 0x4E487B7100000000000000000000000000000000000000000000000000000000 PUSH0 MSTORE PUSH1 0x12 PUSH1 0x4 MSTORE PUSH1 0x24 PUSH0 REVERT JUMPDEST PUSH0 PUSH2 0x2B0 DUP3 PUSH2 0x193 JUMP JUMPDEST SWAP2 POP PUSH2 0x2BB DUP4 PUSH2 0x193 JUMP JUMPDEST SWAP3 POP DUP3 PUSH2 0x2CB JUMPI PUSH2 0x2CA PUSH2 0x279 JUMP JUMPDEST JUMPDEST DUP3 DUP3 DIV SWAP1 POP SWAP3 SWAP2 POP POP JUMP JUMPDEST PUSH0 PUSH2 0x2E0 DUP3 PUSH2 0x193 JUMP JUMPDEST SWAP2 POP PUSH2 0x2EB DUP4 PUSH2 0x193 JUMP JUMPDEST SWAP3 POP DUP3 DUP3 MUL PUSH2 0x2F9 DUP2 PUSH2 0x193 JUMP JUMPDEST SWAP2 POP DUP3 DUP3 DIV DUP5 EQ DUP4 ISZERO OR PUSH2 0x310 JUMPI PUSH2 0x30F PUSH2 0x219 JUMP JUMPDEST JUMPDEST POP SWAP3 SWAP2 POP POP JUMP JUMPDEST PUSH0 PUSH2 0x321 DUP3 PUSH2 0x193 JUMP JUMPDEST SWAP2 POP PUSH2 0x32C DUP4 PUSH2 0x193 JUMP JUMPDEST SWAP3 POP DUP3 DUP3 SUB SWAP1 POP DUP2 DUP2 GT ISZERO PUSH2 0x344 JUMPI PUSH2 0x343 PUSH2 0x219 JUMP JUMPDEST JUMPDEST SWAP3 SWAP2 POP POP JUMP INVALID LOG2 PUSH5 0x6970667358 0x22 SLT KECCAK256 DUP13 MSTORE CALL 0xB2 0xF8 0x21 0xE3 PUSH25 0x289B29344C262DDA47352F4AC355660F12E3AFC58826C13464 PUSH20 0x6F6C634300081800330000000000000000000000 "
				},
				"gasEstimates": {
					"creation": {
						"codeDepositCost": "179200",
						"executionCost": "218",
						"totalCost": "179418"
					},
					"external": {
						"Add()": "infinite",
						"DIv()": "infinite",
						"Multi()": "infinite",
						"Number1(uint256)": "22602",
						"Number2(uint256)": "22493",
						"Sub()": "infinite"
					}
				},
				"methodIdentifiers": {
					"Add()": "67e06858",
					"DIv()": "9465b558",
					"Multi()": "9a5b05ad",
					"Number1(uint256)": "f899d5bf",
					"Number2(uint256)": "1f5ebc40",
					"Sub()": "b87f3280"
				}
			},
			"storageLayout": {
				"storage": [
					{
						"astId": 3,
						"contract": "contracts/Calculator1.sol:Calculator",
						"label": "num1",
						"offset": 0,
						"slot": "0",
						"type": "t_uint256"
					},
					{
						"astId": 5,
						"contract": "contracts/Calculator1.sol:Calculator",
						"label": "num2",
						"offset": 0,
						"slot": "1",
						"type": "t_uint256"
					}
				],
				"types": {
					"t_uint256": {
						"encoding": "inplace",
						"label": "uint256",
						"numberOfBytes": "32"
					}
				}
			},
			"userdoc": {
				"kind": "user",
				"methods": {},
				"version": 1
			}
		}
	}
}