{
	"data": {
		"bytecode": {
			"linkReferences": {},
			"object": "608060405234801561000f575f80fd5b506103808061001d5f395ff3fe608060405234801561000f575f80fd5b5060043610610060575f3560e01c80631f5ebc401461006457806367e06858146100805780639465b5581461009e5780639a5b05ad146100bc578063b87f3280146100da578063f899d5bf146100f8575b5f80fd5b61007e600480360381019061007991906101c6565b610114565b005b61008861011e565b6040516100959190610200565b60405180910390f35b6100a6610138565b6040516100b39190610200565b60405180910390f35b6100c4610152565b6040516100d19190610200565b60405180910390f35b6100e261016c565b6040516100ef9190610200565b60405180910390f35b610112600480360381019061010d91906101c6565b610186565b005b8060018190555050565b5f806001545f5461012f9190610246565b90508091505090565b5f806001545f5461014991906102a6565b90508091505090565b5f806001545f5461016391906102d6565b90508091505090565b5f806001545f5461017d9190610317565b90508091505090565b805f8190555050565b5f80fd5b5f819050919050565b6101a581610193565b81146101af575f80fd5b50565b5f813590506101c08161019c565b92915050565b5f602082840312156101db576101da61018f565b5b5f6101e8848285016101b2565b91505092915050565b6101fa81610193565b82525050565b5f6020820190506102135f8301846101f1565b92915050565b7f4e487b71000000000000000000000000000000000000000000000000000000005f52601160045260245ffd5b5f61025082610193565b915061025b83610193565b925082820190508082111561027357610272610219565b5b92915050565b7f4e487b71000000000000000000000000000000000000000000000000000000005f52601260045260245ffd5b5f6102b082610193565b91506102bb83610193565b9250826102cb576102ca610279565b5b828204905092915050565b5f6102e082610193565b91506102eb83610193565b92508282026102f981610193565b915082820484148315176103105761030f610219565b5b5092915050565b5f61032182610193565b915061032c83610193565b925082820390508181111561034457610343610219565b5b9291505056fea2646970667358221220a7e45cc735ffadf4ddbf68bfc820021140fa0a3bc2419da5093d7cf23bc5b43b64736f6c63430008180033",
			"opcodes": "PUSH1 0x80 PUSH1 0x40 MSTORE CALLVALUE DUP1 ISZERO PUSH2 0xF JUMPI PUSH0 DUP1 REVERT JUMPDEST POP PUSH2 0x380 DUP1 PUSH2 0x1D PUSH0 CODECOPY PUSH0 RETURN INVALID PUSH1 0x80 PUSH1 0x40 MSTORE CALLVALUE DUP1 ISZERO PUSH2 0xF JUMPI PUSH0 DUP1 REVERT JUMPDEST POP PUSH1 0x4 CALLDATASIZE LT PUSH2 0x60 JUMPI PUSH0 CALLDATALOAD PUSH1 0xE0 SHR DUP1 PUSH4 0x1F5EBC40 EQ PUSH2 0x64 JUMPI DUP1 PUSH4 0x67E06858 EQ PUSH2 0x80 JUMPI DUP1 PUSH4 0x9465B558 EQ PUSH2 0x9E JUMPI DUP1 PUSH4 0x9A5B05AD EQ PUSH2 0xBC JUMPI DUP1 PUSH4 0xB87F3280 EQ PUSH2 0xDA JUMPI DUP1 PUSH4 0xF899D5BF EQ PUSH2 0xF8 JUMPI JUMPDEST PUSH0 DUP1 REVERT JUMPDEST PUSH2 0x7E PUSH1 0x4 DUP1 CALLDATASIZE SUB DUP2 ADD SWAP1 PUSH2 0x79 SWAP2 SWAP1 PUSH2 0x1C6 JUMP JUMPDEST PUSH2 0x114 JUMP JUMPDEST STOP JUMPDEST PUSH2 0x88 PUSH2 0x11E JUMP JUMPDEST PUSH1 0x40 MLOAD PUSH2 0x95 SWAP2 SWAP1 PUSH2 0x200 JUMP JUMPDEST PUSH1 0x40 MLOAD DUP1 SWAP2 SUB SWAP1 RETURN JUMPDEST PUSH2 0xA6 PUSH2 0x138 JUMP JUMPDEST PUSH1 0x40 MLOAD PUSH2 0xB3 SWAP2 SWAP1 PUSH2 0x200 JUMP JUMPDEST PUSH1 0x40 MLOAD DUP1 SWAP2 SUB SWAP1 RETURN JUMPDEST PUSH2 0xC4 PUSH2 0x152 JUMP JUMPDEST PUSH1 0x40 MLOAD PUSH2 0xD1 SWAP2 SWAP1 PUSH2 0x200 JUMP JUMPDEST PUSH1 0x40 MLOAD DUP1 SWAP2 SUB SWAP1 RETURN JUMPDEST PUSH2 0xE2 PUSH2 0x16C JUMP JUMPDEST PUSH1 0x40 MLOAD PUSH2 0xEF SWAP2 SWAP1 PUSH2 0x200 JUMP JUMPDEST PUSH1 0x40 MLOAD DUP1 SWAP2 SUB SWAP1 RETURN JUMPDEST PUSH2 0x112 PUSH1 0x4 DUP1 CALLDATASIZE SUB DUP2 ADD SWAP1 PUSH2 0x10D SWAP2 SWAP1 PUSH2 0x1C6 JUMP JUMPDEST PUSH2 0x186 JUMP JUMPDEST STOP JUMPDEST DUP1 PUSH1 0x1 DUP2 SWAP1 SSTORE POP POP JUMP JUMPDEST PUSH0 DUP1 PUSH1 0x1 SLOAD PUSH0 SLOAD PUSH2 0x12F SWAP2 SWAP1 PUSH2 0x246 JUMP JUMPDEST SWAP1 POP DUP1 SWAP2 POP POP SWAP1 JUMP JUMPDEST PUSH0 DUP1 PUSH1 0x1 SLOAD PUSH0 SLOAD PUSH2 0x149 SWAP2 SWAP1 PUSH2 0x2A6 JUMP JUMPDEST SWAP1 POP DUP1 SWAP2 POP POP SWAP1 JUMP JUMPDEST PUSH0 DUP1 PUSH1 0x1 SLOAD PUSH0 SLOAD PUSH2 0x163 SWAP2 SWAP1 PUSH2 0x2D6 JUMP JUMPDEST SWAP1 POP DUP1 SWAP2 POP POP SWAP1 JUMP JUMPDEST PUSH0 DUP1 PUSH1 0x1 SLOAD PUSH0 SLOAD PUSH2 0x17D SWAP2 SWAP1 PUSH2 0x317 JUMP JUMPDEST SWAP1 POP DUP1 SWAP2 POP POP SWAP1 JUMP JUMPDEST DUP1 PUSH0 DUP2 SWAP1 SSTORE POP POP JUMP JUMPDEST PUSH0 DUP1 REVERT JUMPDEST PUSH0 DUP2 SWAP1 POP SWAP2 SWAP1 POP JUMP JUMPDEST PUSH2 0x1A5 DUP2 PUSH2 0x193 JUMP JUMPDEST DUP2 EQ PUSH2 0x1AF JUMPI PUSH0 DUP1 REVERT JUMPDEST POP JUMP JUMPDEST PUSH0 DUP2 CALLDATALOAD SWAP1 POP PUSH2 0x1C0 DUP2 PUSH2 0x19C JUMP JUMPDEST SWAP3 SWAP2 POP POP JUMP JUMPDEST PUSH0 PUSH1 0x20 DUP3 DUP5 SUB SLT ISZERO PUSH2 0x1DB JUMPI PUSH2 0x1DA PUSH2 0x18F JUMP JUMPDEST JUMPDEST PUSH0 PUSH2 0x1E8 DUP5 DUP3 DUP6 ADD PUSH2 0x1B2 JUMP JUMPDEST SWAP2 POP POP SWAP3 SWAP2 POP POP JUMP JUMPDEST PUSH2 0x1FA DUP2 PUSH2 0x193 JUMP JUMPDEST DUP3 MSTORE POP POP JUMP JUMPDEST PUSH0 PUSH1 0x20 DUP3 ADD SWAP1 POP PUSH2 0x213 PUSH0 DUP4 ADD DUP5 PUSH2 0x1F1 JUMP JUMPDEST SWAP3 SWAP2 POP POP JUMP JUMPDEST PUSH32 0x4E487B7100000000000000000000000000000000000000000000000000000000 PUSH0 MSTORE PUSH1 0x11 PUSH1 0x4 MSTORE PUSH1 0x24 PUSH0 REVERT JUMPDEST PUSH0 PUSH2 0x250 DUP3 PUSH2 0x193 JUMP JUMPDEST SWAP2 POP PUSH2 0x25B DUP4 PUSH2 0x193 JUMP JUMPDEST SWAP3 POP DUP3 DUP3 ADD SWAP1 POP DUP1 DUP3 GT ISZERO PUSH2 0x273 JUMPI PUSH2 0x272 PUSH2 0x219 JUMP JUMPDEST JUMPDEST SWAP3 SWAP2 POP POP JUMP JUMPDEST PUSH32 0x4E487B7100000000000000000000000000000000000000000000000000000000 PUSH0 MSTORE PUSH1 0x12 PUSH1 0x4 MSTORE PUSH1 0x24 PUSH0 REVERT JUMPDEST PUSH0 PUSH2 0x2B0 DUP3 PUSH2 0x193 JUMP JUMPDEST SWAP2 POP PUSH2 0x2BB DUP4 PUSH2 0x193 JUMP JUMPDEST SWAP3 POP DUP3 PUSH2 0x2CB JUMPI PUSH2 0x2CA PUSH2 0x279 JUMP JUMPDEST JUMPDEST DUP3 DUP3 DIV SWAP1 POP SWAP3 SWAP2 POP POP JUMP JUMPDEST PUSH0 PUSH2 0x2E0 DUP3 PUSH2 0x193 JUMP JUMPDEST SWAP2 POP PUSH2 0x2EB DUP4 PUSH2 0x193 JUMP JUMPDEST SWAP3 POP DUP3 DUP3 MUL PUSH2 0x2F9 DUP2 PUSH2 0x193 JUMP JUMPDEST SWAP2 POP DUP3 DUP3 DIV DUP5 EQ DUP4 ISZERO OR PUSH2 0x310 JUMPI PUSH2 0x30F PUSH2 0x219 JUMP JUMPDEST JUMPDEST POP SWAP3 SWAP2 POP POP JUMP JUMPDEST PUSH0 PUSH2 0x321 DUP3 PUSH2 0x193 JUMP JUMPDEST SWAP2 POP PUSH2 0x32C DUP4 PUSH2 0x193 JUMP JUMPDEST SWAP3 POP DUP3 DUP3 SUB SWAP1 POP DUP2 DUP2 GT ISZERO PUSH2 0x344 JUMPI PUSH2 0x343 PUSH2 0x219 JUMP JUMPDEST JUMPDEST SWAP3 SWAP2 POP POP JUMP INVALID LOG2 PUSH5 0x6970667358 0x22 SLT KECCAK256 0xA7 0xE4 TLOAD 0xC7 CALLDATALOAD SELFDESTRUCT 0xAD DELEGATECALL 0xDD 0xBF PUSH9 0xBFC820021140FA0A3B 0xC2 COINBASE SWAP14 0xA5 MULMOD RETURNDATASIZE PUSH29 0xF23BC5B43B64736F6C6343000818003300000000000000000000000000 "
		},
		"gasEstimates": {
			"creation": {
				"codeDepositCost": "179200",
				"executionCost": "218",
				"totalCost": "179418"
			},
			"external": {
				"Add()": "infinite",
				"DIv()": "infinite",
				"Multi()": "infinite",
				"Number1(uint256)": "22602",
				"Number2(uint256)": "22493",
				"Sub()": "infinite"
			}
		},
		"methodIdentifiers": {
			"Add()": "67e06858",
			"DIv()": "9465b558",
			"Multi()": "9a5b05ad",
			"Number1(uint256)": "f899d5bf",
			"Number2(uint256)": "1f5ebc40",
			"Sub()": "b87f3280"
		}
	},
	"abi": [
		{
			"inputs": [],
			"name": "Add",
			"outputs": [
				{
					"internalType": "uint256",
					"name": "",
					"type": "uint256"
				}
			],
			"stateMutability": "view",
			"type": "function"
		},
		{
			"inputs": [],
			"name": "DIv",
			"outputs": [
				{
					"internalType": "uint256",
					"name": "",
					"type": "uint256"
				}
			],
			"stateMutability": "view",
			"type": "function"
		},
		{
			"inputs": [],
			"name": "Multi",
			"outputs": [
				{
					"internalType": "uint256",
					"name": "",
					"type": "uint256"
				}
			],
			"stateMutability": "view",
			"type": "function"
		},
		{
			"inputs": [
				{
					"internalType": "uint256",
					"name": "x",
					"type": "uint256"
				}
			],
			"name": "Number1",
			"outputs": [],
			"stateMutability": "nonpayable",
			"type": "function"
		},
		{
			"inputs": [
				{
					"internalType": "uint256",
					"name": "x",
					"type": "uint256"
				}
			],
			"name": "Number2",
			"outputs": [],
			"stateMutability": "nonpayable",
			"type": "function"
		},
		{
			"inputs": [],
			"name": "Sub",
			"outputs": [
				{
					"internalType": "uint256",
					"name": "",
					"type": "uint256"
				}
			],
			"stateMutability": "view",
			"type": "function"
		}
	]
}